:100000000C9434000C943E000C943E000C943E0082
:100010000C943E000C943E000C943E000C943E0068
:100020000C943E000C943E000C943E000C943E0058
:100030000C943E000C943E000C943E000C943E0048
:100040000C943E000C943E000C943E000C943E0038
:100050000C943E000C943E000C943E000C943E0028
:100060000C943E000C943E0011241FBECFEFD8E04C
:10007000DEBFCDBF0E9440000C9459000C940000DC
:100080001AB880E284B920E289B186958695982FC6
:10009000969580FF0AC090FD0AC025B989B1869562
:1000A0008695982F969580FDF6CF91FFF6CF15B8DF
:0600B000EBCFF894FFCF36
:00000001FF
